:020000040800F2
:100000000000022075110008C5110008C511000884
:10001000C5110008C5110008C51100080000000046
:10002000000000000000000000000000C5110008F2
:10003000C511000800000000C51100082D0F0008C0
:10004000C5110008C5110008C5110008C511000838
:10005000C5110008C5110008C5110008C511000828
:10006000C5110008C5110008C5110008C511000818
:10007000C5110008C5110008C5110008C511000808
:10008000C5110008C5110008C511000800000000D6
:10009000000000000000000000000000C511000882
:1000A000C5110008C5110008C5110008C5110008D8
:1000B000C5110008390F0008C5110008C511000856
:1000C000C5110008C5110008C5110008C5110008B8
:1000D000C5110008C5110008490F00080000000004
:1000E000C5110008C5110008C51100080000000076
:1000F000000000000000000000000000C511000822
:1001000000000000C5110008C5110008C511000855
:1001100000000000000000000000000000000000DF
:10012000C5110008C5110008C5110008C511000857
:10013000C5110008000000000000000000000000E1
:10014000000000000000000000000000C5110008D1
:10015000C5110008C5110008C5110008C511000827
:10016000C5110008C51100080000000000000000D3
:10017000000000000000000000000000000000007F
:1001800000000000C5110008000000000000000091
:08019000C5110008C5110008AB
:1001980010B5054C237833B9044B13B10448AFF3B9
:1001A80000800123237010BD2C00002000000000F7
:1001B8001012000808B5034B1BB103490348AFF3FD
:1001C800008008BD00000000300000201012000868
:1001D800034613F8012B002AFBD1181A013870477F
:1001E80010B504460E4B18784FF47A73B3FBF0F34E
:1001F8000C4A1068B0FBF3F000F094F868B90F2CC3
:1002080001D901200AE0002221464FF0FF3000F01A
:1002180049F8034B5C60002000E0012010BD00BFDE
:10022800000000202800002008B50B4B1A6842F493
:1002380000721A601A6842F480621A601A6842F4FE
:1002480080721A60032000F01BF80020FFF7C8FF37
:1002580000F0F4FE002008BD003C0240034A11688B
:10026800034B1B780B441360704700BF4800002005
:1002780000000020014B1868704700BF48000020AC
:10028800074AD36823F4E0631B041B0C000200F444
:10029800E060184340F0BF6040F40030D060704721
:1002A80000ED00E030B4174BDB68C3F30223C3F161
:1002B8000704042C28BF04241D1D062D18D9033B50
:1002C8004FF0FF3505FA04F421EA0401994005FAD4
:1002D80003F322EA0303194300280BDB0901C9B21F
:1002E80000F1604000F5614080F8001330BC7047B1
:1002F8000023E5E700F00F000901C9B2024B1954C9
:10030800F4E700BF00ED00E014ED00E000F01F028C
:10031800400901239340024A42F82030704700BF49
:1003280000E100E00138B0F1807F0AD2064B586046
:10033800064AF02182F823100020986007221A60EC
:1003480070470120704700BF10E000E000ED00E0BA
:10035800704708B5FFF7FCFF08BD90F83530DBB2F1
:10036800022B03D08023436501207047052380F8C2
:1003780035300268136823F00103136000207047CA
:1003880000230F2B00F2C580F0B482B039E00422BC
:1003980000E00022B2403A4302345E4E46F8242080
:1003A8005D4A1468EA4302EA04064F6817F4803F7E
:1003B80001D045EA0406584C2660646802EA04063F
:1003C8004F6817F4003F01D045EA0406524C6660B6
:1003D800A46802EA04064F6817F4801F01D045EAB2
:1003E80004064D4CA660E46822404E6816F4001FCF
:1003F80001D045EA0402484CE26001330F2B00F2B9
:10040800858001229A400C6804EA0205AA42F4D1C8
:100418004C68022C01D0122C10D1DE08083650F896
:1004280026C003F00704A7000F24BC402CEA040CE4
:100438000C69BC4044EA0C0440F8264004685F009C
:100448000326BE40F64306EA040C4C6804F0030495
:10045800BC4044EA0C0404604C6804F1FF3CBCF165
:10046800010F03D9112C01D0122C10D1846806EA8F
:10047800040CCC68BC4044EA0C048460446824EA58
:1004880002024C68C4F300149C4014434460C268E0
:1004980016408A68BA403243C2604A6812F0805FE8
:1004A800ABD0002201921D4A546C44F48044546439
:1004B800526C02F480420192019A9C08A61C154ACB
:1004C80052F8267003F0030296000F22B24027EA82
:1004D8000207134A90423FF45CAF02F580629042F3
:1004E8000ED002F5806290420CD002F580629042F4
:1004F8000AD002F5806290423FF449AF072249E7EB
:10050800012247E7022245E7032243E702B0F0BC95
:100518007047704700380140003C014000380240F5
:1005280000000240024A136943F002031361704756
:1005380000ED00E0014B1868704700BF280000205C
:1005480008B5FFF7F7FF044B9B68C3F38223034A00
:10055800D35CD84008BD00BF0038024038120008FC
:1005680008B5FFF7E7FF044B9B68C3F34233034A20
:10057800D35CD84008BD00BF0038024038120008DC
:100588000268D36843F00103D3600268136843F03C
:100598000103136000207047704770477047704729
:1005A80010B5044603681A6912F0020F11D0DA6810
:1005B80012F0020F0DD06FF002021A6101230376C8
:1005C80003689B6913F0030F70D0FFF7E6FF002361
:1005D800237623681A6912F0040F12D0DA6812F031
:1005E800040F0ED06FF004021A61022323762368E9
:1005F8009B6913F4407F5FD02046FFF7CEFF0023AE
:10060800237623681A6912F0080F12D0DA6812F0FC
:10061800080F0ED06FF008021A61042323762368AE
:10062800DB6913F0030F4ED02046FFF7B6FF002317
:10063800237623681A6912F0100F12D0DA6812F0C4
:10064800100F0ED06FF010021A610823237623686A
:10065800DB6913F4407F3DD02046FFF79EFF00235F
:10066800237623681A6912F0010F03D0DA6812F0B2
:10067800010F36D123681A6912F0800F03D0DA68A7
:1006880012F0800F34D123681A6912F0400F03D09A
:10069800DA6812F0400F32D123681A6912F0200F7D
:1006A80003D0DA6812F0200F30D110BDFFF774FFC5
:1006B8002046FFF773FF8AE72046FFF76DFF2046C5
:1006C800FFF76CFF9BE72046FFF766FF2046FFF722
:1006D80065FFACE72046FFF75FFF2046FFF75EFFA8
:1006E800BDE76FF001021A61204600F065FCC1E722
:1006F8006FF080021A61204600F074F8C3E76FF0CB
:1007080040021A612046FFF74AFFC5E76FF0200252
:100718001A61204600F065F8C7E700000368234A1D
:1007280090420ED0B0F1804F0BD0A2F57C4290429F
:1007380007D002F58062904203D002F580629042B1
:1007480003D123F070034A681343184A90421AD021
:10075800B0F1804F17D0A2F57C42904213D002F539
:10076800806290420FD002F5806290420BD002F571
:100778009A32904207D002F58062904203D002F587
:100788008062904203D123F44073CA681343036024
:100798008B68C3620B688362044B984202D00123C2
:1007A800436170470B690363F9E700BF000001402C
:1007B800A8B110B5044690F839305BB1022384F82B
:1007C8003930211D2068FFF7A9FF012384F839304B
:1007D800002010BD80F8383000F04EFCEEE7012014
:1007E8007047704770470268D36823F49073D360EA
:1007F8000268536923F001035361202380F83A30DB
:10080800704790F83930DBB2212B2AD18368B3F5D1
:10081800805F16D0036A5A1C02621A7803685A600D
:10082800C38C013B9BB2C384EBB90268D36823F045
:100838008003D3600268D36843F04003D36000208C
:100848007047036A1B880268C3F30803536003698F
:100858001BB9036A02330362E2E7036A01330362E6
:10086800DEE7022070470020704700002DE9F843BA
:10087800044601680A6922F44052C36813430B61B5
:100888000168CA6822F4164222F00C0283680069E3
:10089800034360690343E06903431343CB60216862
:1008A8004A6922F44072A36913434B61E369B3F5C3
:1008B800004F60D02368B84A934200F0148102F5D3
:1008C8008062934200F00F81FFF73AFE00EB800050
:1008D80000EB80006568AD00B0FBF5F5AF4FA7FBF6
:1008E80005356D092E01FFF72BFE00EB800000EBAC
:1008F80080006568AD00B0FBF5F9FFF721FE00EB5D
:10090800800000EB80006568AD00B0FBF5F5A7FB43
:1009180005356D094FF0640808FB15952D01323532
:10092800A7FB05356D0905F0F0053544FFF708FE0E
:1009380000EB800000EB80006668B600B0FBF6F6BE
:10094800FFF7FEFD00EB800000EB800063689B0072
:10095800B0FBF3F0A7FB0030400908FB10684FEA32
:10096800081808F13208A7FB0837C7F343172368AC
:100978002F449F600DE12368874A93425BD002F5BC
:100988008062934257D0FFF7DBFD00EB800000EB5D
:10099800800065686D00B0FBF5F5804FA7FB053555
:1009A8006D092E01FFF7CCFD00EB800000EB800005
:1009B80065686D00B0FBF5F9FFF7C2FD00EB80003C
:1009C80000EB800065686D00B0FBF5F5A7FB053509
:1009D8006D094FF0640808FB1595ED003235A7FB4B
:1009E80005356D096D0005F4F8753544FFF7A8FD68
:1009F80000EB800000EB800066687600B0FBF6F63E
:100A0800FFF79EFD00EB800000EB800063685B0051
:100A1800B0FBF3F3A7FB03235B0908FB13684FEA5A
:100A2800C80808F13208A7FB0837C7F3421723683C
:100A38002F449F60ADE0FFF793FD00EB800000EBD3
:100A4800800065686D00B0FBF5F5544FA7FB0535D0
:100A58006D092E01FFF784FD00EB800000EB80009C
:100A680065686D00B0FBF5F9FFF77AFD00EB8000D3
:100A780000EB800065686D00B0FBF5F5A7FB053558
:100A88006D094FF0640808FB1595ED003235A7FB9A
:100A980005356D096D0005F4F8753544FFF760FDFF
:100AA80000EB800000EB800066687600B0FBF6F68D
:100AB800FFF756FD00EB800000EB800063685B00E9
:100AC800B0FBF3F3A7FB03235B0908FB13684FEAAA
:100AD800C80808F13208A7FB0837C7F3421723688C
:100AE8002F449F6055E0FFF73BFD00EB800000EBD3
:100AF80080006568AD00B0FBF5F5284FA7FB05350C
:100B08006D092E01FFF72CFD00EB800000EB800043
:100B18006568AD00B0FBF5F9FFF722FD00EB80003A
:100B280000EB80006568AD00B0FBF5F5A7FB053567
:100B38006D094FF0640808FB15952D013235A7FBA8
:100B480005356D0905F0F0053544FFF709FD00EBA3
:100B5800800000EB80006668B600B0FBF6F6FFF791
:100B6800FFFC00EB800000EB800063689B00B0FB9B
:100B7800F3F0A7FB0030400908FB10684FEA08189B
:100B880008F13208A7FB0837C7F3431723682F4437
:100B98009F60BDE8F88300BF001001401F85EB513E
:100BA8002DE9F04105460F4616469846069C2B68E7
:100BB8001B6837EA03030CBF01230023B3421DD18E
:100BC800B4F1FF3FF3D02CB1FFF754FBA0EB0800C2
:100BD800A042ECD92A68D36823F4D073D3602A687A
:100BE800536923F001035361202385F8393085F8D0
:100BF8003A30002385F83830032000E00020BDE8B3
:100C0800F08158B310B5044690F839300BB324235B
:100C180084F839302268D36823F40053D36020461F
:100C2800FFF724FE2268136923F4904313612268B6
:100C3800536923F02A0353612268D36843F40053AD
:100C4800D3600020E063202384F8393084F83A30F8
:100C580010BD80F8383000F029FAD8E70120704735
:100C68002DE9F04182B01E4690F83930DBB2202BD6
:100C780055D104460D469046002955D0002A55D036
:100C880090F83830012B53D0012380F838300023F6
:100C9800C363212380F83930FFF7ECFA0746A4F83C
:100CA8002480A4F8268010E000963B46002280218C
:100CB8002046FFF775FF00283CD12B882268C3F334
:100CC800080353602369C3B90235E38C9BB2B3B1FF
:100CD800E38C013B9BB2E384A368B3F5805FE3D068
:100CE80000963B46002280212046FFF759FF18BB9B
:100CF8002A7823685A600135E7E70135E5E7009669
:100D08003B46002240212046FFF74AFF0346A8B988
:100D1800202284F83920002284F8382000E00223B9
:100D2800184602B0BDE8F0810123F9E70123F7E78F
:100D38000223F5E70323F3E70323F1E70323EFE7B0
:100D4800704708B50168CB6823F04003CB602023C7
:100D580080F83930FFF7F4FF002008BD704708B568
:100D680090F83A30DBB2222B40D18368B3F5805F2C
:100D78000ED0036903BB03685A68836A591C8162F1
:100D88001A70C38D013B9BB2C385F3B100202EE0DE
:100D9800826A036943B903685B68C3F30803138075
:100DA800836A02338362ECE703685B68DBB2138013
:100DB800836A01338362E4E703685B68826A511CD3
:100DC800816203F07F031370DBE70268D36823F4C2
:100DD8009073D3600268536923F0010353612023A1
:100DE80080F83A30FFF7BAFF002000E0022008BD83
:100DF8007047000010B5044602681368D16852694C
:100E080013F00F0005D113F0200F02D011F0200FBE
:100E180053D1002867D012F0010202D111F4907F5B
:100E280061D013F0010F06D011F4807F03D0E06B7E
:100E380040F00100E06313F0040F04D01AB1E06B36
:100E480040F00200E06313F0020F04D01AB1E06B27
:100E580040F00400E06313F0080F04D01AB1E26B0D
:100E680042F00802E263E26B002A48D013F0200F38
:100E780002D011F0200F24D123685B6903F04003EE
:100E8800E26B12F0080F00D13BB32046FFF7ABFC32
:100E980023685A6912F0400F1BD05A6922F04002A9
:100EA8005A61636B8BB11A4A1A65606BFFF755FA82
:100EB80028B3606B036D984721E02046FFF74FFF8A
:100EC8001DE02046FFF74BFFD6E72046FFF790FFCF
:100ED80015E02046FFF78CFF11E02046FFF788FF5A
:100EE8000023E3630BE013F0800F02D011F0800FB2
:100EF80006D113F0400F02D011F0400F04D110BDFD
:100F08002046FFF77EFCFAE72046FFF71AFFF6E7D0
:100F18001D0F000808B5806B0023C385C384FFF745
:100F280067FF08BD08B5FFF799F9FFF712FA08BD82
:100F380008B50248FFF734FB08BD00BF4C0000208D
:100F480008B50248FFF756FF08BD00BF880000201B
:100F580000B587B0002100910A4B1A6B42F00102DC
:100F68001A631B6B03F001030093009B202301937A
:100F780001230293039101A90348FFF701FA07B07F
:100F88005DF804FB0038024000000240FEE7000064
:100F980008B50748074B036041F28733C36026232F
:100FA8004360FFF705FC00B908BDFFF7EFFF00BF7E
:100FB8004C0000200004004010B5074C2046FFF705
:100FC80007F94FF0FF3382B221460448FFF748FE85
:100FD80000B910BDFFF7DAFF0800002088000020E4
:100FE80008B50948094B03604FF4E1334360002317
:100FF8008360C36003610C2242618361FFF701FED5
:1010080000B908BDFFF7C2FF880000200044004077
:1010180008B5FFF709F9FFF79BFFFFF7E1FFFFF7B7
:10102800B7FFFFF77FFA034B00221A610248FFF768
:10103800A7FAFEE7000400404C00002008B5032092
:10104800FFF71EF90B4A536A43F4E0235362002268
:1010580011466FF00B00FFF725F9002211466FF0DB
:101068000A00FFF71FF9002211466FF00900FFF789
:1010780019F908BD00ED00E010B582B00024019414
:10108800094B1A6C42F002021A641B6C03F002034B
:101098000193019B1D20FFF739F922460F211D20DE
:1010A800FFF700F902B010BD0038024030B589B032
:1010B80000240194184B1A6C42F400321A641A6C1A
:1010C80002F400320192019A02941A6B42F0010272
:1010D8001A631B6B03F001030293029B042303931F
:1010E80002230493012305930694072307930B4DCA
:1010F80003A92846FFF744F90823039303A92846C0
:10110800FFF73EF92620FFF701F922460F21262096
:10111800FFF7C8F809B030BD0038024000000240AF
:101128000F49D1F8883043F47003C1F888300D4B6B
:101138001A6842F001021A60002098601A6822F0CA
:10114800847222F480321A60074A5A601A6822F4BC
:1011580080221A60D8604FF000638B60704700BF30
:1011680000ED00E00038024010300024DFF834D0F1
:10117800002103E00C4B5B58435004310B480C4BE7
:1011880042189A42F6D30B4A02E0002342F8043B85
:10119800094B9A42F9D3FFF7C3FF00F011F8FFF7A4
:1011A80037FF7047000002204812000800000020A6
:1011B8002C0000202C000020C8000020FEE70000C2
:1011C80070B50D4E0D4CA41BA4100025A54209D1E5
:1011D8000B4E0C4C00F018F8A41BA4100025A542D7
:1011E80005D170BD56F8253098470135EEE756F819
:1011F800253098470135F2E74012000840120008F0
:101208004012000844120008F8B500BFF8BC08BC3A
:101218009E467047F8B500BFF8BC08BC9E467047AC
:10122800000000000000000001020304060708098E
:081238000000000001020304A4
:04124000BD010008E4
:041244009901000804
:10124800010000001000000054657374696E672087
:10125800534C4545504F4E45584954666561747521
:0C1268007265200D0A0000000024F40054
:040000050800117569
:00000001FF
